:100000000C9434000C9451000C9451000C94510049
:100010000C9451000C9451000C9451000C9451001C
:100020000C9451000C9451000C9451000C9451000C
:100030000C9451000C9451000C9451000C945100FC
:100040000C9451000C9451000C9412010C9451002A
:100050000C9451000C9451000C9451000C945100DC
:100060000C9451000C94510011241FBECFEFD8E026
:10007000DEBFCDBF11E0A0E0B1E0EEEAF2E002C0E9
:1000800005900D92A630B107D9F711E0A6E0B1E0D6
:1000900001C01D92A832B107E1F70E94AC000C9498
:1000A00055010C94000021E030C080910C018D3589
:1000B00069F480910D01823030F1E0910D01F0E0A2
:1000C000E05FFE4F108220930E011DC080910C0155
:1000D000803324F080910C018A3324F080910C014C
:1000E000803289F480910D01853068F480910D0192
:1000F000E82FF0E090910C01E05FFE4F90838F5F5E
:1001000080930D0102C010920F0180910E0188238F
:1001100061F280910F01882341F60895519A599810
:1001200010920D0110920E0110920F010895982F58
:100130008091C00085FFFCCF9093C6000895FC011C
:1001400007C08091C00085FFFCCF9093C600319618
:1001500090819923B1F70895DF92EF92FF920F9368
:100160001F93DF93CF9300D000D000D0CDB7DEB780
:10017000389A8FE290E09093C5008093C40086E0A7
:100180008093C2008091C10088618093C1008FE29A
:1001900090E00E948E008091C10080688093C10031
:1001A000DE011196E0E0F1E086E001900D928150D1
:1001B000E1F77E010894E11CF11C06E111E0DD2469
:1001C000D394C7010E949F0081E00030180711F40A
:1001D000409801C0409A8091C60080930C018091A4
:1001E0000C018B3571F7D0920F0110920D01109216
:1001F0000E010E945300E5CFDC01F89480910E01BE
:10020000882379F080E090E001C0ED93FC01E05F8D
:10021000FE4FE0810196EE23C1F71C9210920E0171
:1002200081E008951F920F920FB60F9211242F9321
:100230008F939F93EF93FF932091C60080910601C7
:1002400090910701FC01EA5EFE4F20830196909396
:100250000701809306018091060190910701409764
:10026000D1F481E090E0909309018093080180919E
:100270000601909107010196909307018093060172
:10028000E0910601F0910701EA5EFE4F10821092A4
:10029000070110920601FF91EF919F918F912F918D
:0E02A0000F900FBE0F901F901895F894FFCF8F
:0602AE00414141410A003C
:00000001FF
