:100000000C9434000C9446000C9446000C9446006A
:100010000C9446000C9446000C9446000C94460048
:100020000C9446000C9446000C9446000C94460038
:100030000C9446000C9446000C9446000C94460028
:100040000C9446000C9446000C9460000C944600FE
:100050000C9446000C9446000C9446000C94460008
:100060000C9446000C94460011241FBECFEFD8E03C
:10007000DEBFCDBF11E0A0E0B1E001C01D92A8310C
:10008000B107E1F70E94A1000C94D1000C9400008C
:10009000519A59980895982F8091C00085FFFCCF00
:1000A0009093C6000895FC0107C08091C00085FFB1
:1000B000FCCF9093C600319690819923B1F70895B3
:1000C0001F920F920FB60F9211242F938F939F932D
:1000D000EF93FF932091C600809100019091010160
:1000E000FC01EA5FFE4F208301969093010180930B
:1000F000000180910001909101014097C1F480912D
:1001000002019091030180910001909101010196FB
:100110009093010180930001E0910001F0910101B1
:10012000EA5FFE4F10821092010110920001FF91D0
:10013000EF919F918F912F910F900FBE0F901F9075
:100140001895389A8FE290E09093C5008093C40090
:1001500086E08093C2008091C10088618093C100D5
:10016000519A59988091C10080688093C100789419
:1001700086E091E064E470E00E94C6009C012115D5
:10018000310511F04098FBCF409AFECFFC018191E0
:10019000861721F08823D9F7992708953197CF0141
:0601A0000895F894FFCF62
:00000001FF
