:100000000C9434000C9451000C9451000C94510049
:100010000C9451000C9451000C9451000C9451001C
:100020000C9451000C9451000C9451000C9451000C
:100030000C9451000C9451000C9451000C945100FC
:100040000C9451000C9451000C94A3000C9451009A
:100050000C9451000C9451000C9451000C945100DC
:100060000C9451000C94510011241FBECFEFD8E026
:10007000DEBFCDBF11E0A0E0B1E0ECECF1E002C0EA
:1000800005900D92A430B107D9F711E0A4E0B1E0DA
:1000900001C01D92AC31B107E1F70E946B000C94D6
:1000A000E4000C940000519A59980895982F80917B
:1000B000C00085FFFCCF9093C6000895FC0107C0E7
:1000C0008091C00085FFFCCF9093C600319690814F
:1000D0009923B1F708950F931F93DF93CF9300D027
:1000E0000F92CDB7DEB7389A8FE290E09093C500BB
:1000F0008093C40086E08093C2008091C100886133
:100100008093C100519A59988091C1008068809372
:10011000C1007894DE011196E0E0F1E083E0019007
:100120000D928150E1F78E010F5F1F4FC8010E94B1
:100130005E008091060190910701019711F44098AB
:10014000F5CF409AF3CF1F920F920FB60F92112462
:100150002F938F939F93EF93FF932091C6008091ED
:10016000040190910501FC01E65FFE4F208301969A
:100170009093050180930401809104019091050101
:100180004097C1F48091060190910701809104018C
:100190009091050101969093050180930401E091EF
:1001A0000401F0910501E65FFE4F108210920501F7
:1001B00010920401FF91EF919F918F912F910F90D9
:0C01C0000FBE0F901F901895F894FFCF11
:0401CC005A5800007D
:00000001FF
