:100000000C9434000C9446000C9446000C9446006A
:100010000C9446000C9446000C9446000C94460048
:100020000C9446000C9446000C9446000C94460038
:100030000C9446000C9446000C9446000C94460028
:100040000C9446000C9446000C9479000C944600E5
:100050000C9446000C9446000C9446000C94460008
:100060000C9446000C94460011241FBECFEFD8E03C
:10007000DEBFCDBF11E0A0E0B1E001C01D92A8310C
:10008000B107E1F70E9448000C94BA000C940000FC
:10009000389A8FE290E09093C5008093C40086E088
:1000A0008093C2008091C10088618093C100519A01
:1000B00059988091C10080688093C10078944098DD
:1000C000FECF519A59980895982F8091C00085FFCE
:1000D000FCCF9093C6000895FC0107C08091C0003A
:1000E00085FFFCCF9093C600319690819923B1F79C
:1000F00008951F920F920FB60F9211242F938F9392
:100100009F93EF93FF932091C600809100019091FF
:100110000101FC01EA5FFE4F2083019690930101EB
:100120008093000180910001909101014097C1F4FA
:100130008091020190910301809100019091010151
:1001400001969093010180930001E0910001F091EC
:100150000101EA5FFE4F108210920101109200012E
:10016000FF91EF919F918F912F910F900FBE0F9064
:080170001F901895F894FFCFD1
:00000001FF
