:100000000C9434000C9451000C9451000C94510049
:100010000C9451000C9451000C9451000C9451001C
:100020000C9451000C9451000C9451000C9451000C
:100030000C9451000C9451000C9451000C945100FC
:100040000C9451000C9451000C946B000C945100D2
:100050000C9451000C9451000C9451000C945100DC
:100060000C9451000C94510011241FBECFEFD8E026
:10007000DEBFCDBF11E0A0E0B1E0EAE0F2E002C0F7
:1000800005900D92A430B107D9F711E0A4E0B1E0DA
:1000900001C01D92AD31B107E1F70E94B8000C9488
:1000A00003010C9400003C9A44980895982F809185
:1000B000C00085FFFCCF9093C6000895FC0107C0E7
:1000C0008091C00085FFFCCF9093C600319690814F
:1000D0009923B1F708951F920F920FB60F92112432
:1000E0002F938F939F93EF93FF932091C60080915E
:1000F000040190910501FC01E55FFE4F208301960C
:100100009093050180930401809104019091050171
:100110004097A1F48091040190910501019690937C
:10012000050180930401E0910401F0910501E55F70
:10013000FE4F10821092050110920401FF91EF9181
:100140009F918F912F910F900FBE0F901F90189538
:10015000BC018BE091E00E94E900009721F0409AF9
:1001600021E030E003C0409820E030E0C90108956C
:100170000F931F93DF93CF9300D0CDB7DEB7389A9C
:10018000399A3A9A8FE290E09093C5008093C40028
:1001900086E08093C2008091C10088618093C10095
:1001A0003C9A44988091C10080688093C100789403
:1001B00080910201909103019A8389838E010F5FE0
:1001C0001F4FC8010E945E0080E091E00E94A800DD
:1001D000F8CFFB0151915523A9F0BF01DC014D91EE
:1001E00045174111E1F759F4CD010190002049F084
:1001F0004D9140154111C9F3FB014111EFCF81E051
:0A02000090E001970895F894FFCFF5
:04020A00420041006D
:00000001FF
