:100000000C9434000C9451000C9451000C94510049
:100010000C9451000C9451000C9451000C9451001C
:100020000C9451000C9451000C9451000C9451000C
:100030000C9451000C9451000C9451000C945100FC
:100040000C9451000C9451000C9488000C945100B5
:100050000C9451000C9451000C9451000C945100DC
:100060000C9451000C94510011241FBECFEFD8E026
:10007000DEBFCDBF11E0A0E0B1E0E6E6F2E002C0F5
:1000800005900D92A830B107D9F711E0A8E0B1E0D2
:1000900001C01D92AA32B107E1F70E94CB000C9477
:1000A00031010C940000519A599810920F0110924E
:1000B0001001109211010895982F8091C00085FFC2
:1000C000FCCF9093C6000895FC0107C08091C0004A
:1000D00085FFFCCF9093C600319690819923B1F7AC
:1000E0000895DC01F89480911001882379F080E074
:1000F00090E001C0ED93FC01EE5EFE4FE0810196C1
:10010000EE23C1F71C921092100181E078940895BB
:100110001F920F920FB60F9211242F938F939F93DC
:10012000EF93FF932091C6008091080190910901FF
:10013000FC01E85EFE4F20830196909309018093B5
:10014000080180910801909109014097D1F481E064
:1001500090E090930B0180930A01809108019091A7
:10016000090101969093090180930801E09108012B
:10017000F0910901E85EFE4F108210920901109281
:100180000801FF91EF919F918F912F910F900FBEDA
:100190000F901F901895EF92FF920F931F93DF938C
:1001A000CF93CDB7DEB728970FB6F894DEBF0FBE5A
:1001B000CDBF389A8FE290E09093C5008093C40041
:1001C00086E08093C2008091C10088618093C10065
:1001D0008FE290E00E9453008091C100806880937C
:1001E000C1007894DE011196E0E0F1E088E0019032
:1001F0000D928150E1F77E010894E11CF11C08EB9F
:1002000010E0C7010E94640088E191E060E071E0C5
:100210000E941701009749F0409888E893E1F8019F
:100220003197F1F70197D9F7ECCF409AEACFFB016C
:1002300051915523A9F0BF01DC014D9145174111A2
:10024000E1F759F4CD010190002049F04D9140159E
:100250004111C9F3FB014111EFCF81E090E001971B
:060260000895F894FFCFA1
:080266004472696C6C20410038
:00000001FF
