:100000000C9434000C9451000C9451000C94510049
:100010000C9451000C9451000C9451000C9451001C
:100020000C9451000C9451000C9451000C9451000C
:100030000C9451000C9451000C9451000C945100FC
:100040000C9451000C9451000C946D000C945100D0
:100050000C9451000C9451000C9451000C945100DC
:100060000C9451000C94510011241FBECFEFD8E026
:10007000DEBFCDBF11E0A0E0B1E0E4E2F2E002C0FB
:1000800005900D92A830B107D9F711E0A8E0B1E0D2
:1000900001C01D92A132B107E1F70E94AA000C94A1
:1000A00010010C940000399A41983C9A44980895A4
:1000B000982F8091C00085FFFCCF9093C6000895D3
:1000C000FC0107C08091C00085FFFCCF9093C60063
:1000D000319690819923B1F708951F920F920FB630
:1000E0000F9211242F938F939F93EF93FF9320915F
:1000F000C6008091080190910901FC01E15FFE4F6B
:100100002083019690930901809308018091080152
:10011000909109014097A1F4809108019091090103
:1001200001969093090180930801E0910801F091F4
:100130000901E15FFE4F108210920901109208013F
:10014000FF91EF919F918F912F910F900FBE0F9084
:100150001F901895EF92FF920F931F93DF93CF9309
:10016000CDB7DEB728970FB6F894DEBF0FBECDBF70
:10017000389A8FE290E09093C5008093C40086E0A7
:100180008093C2008091C10088618093C1008FE29A
:1001900090E00E9453008091C10080688093C1006C
:1001A0007894DE011196E0E0F1E088E001900D9294
:1001B0008150E1F77E010894E11CF11C08EB10E08E
:1001C000C7010E9460008FE091E060E071E00E9452
:1001D000F600009749F0409A88E893E1F8013197DA
:1001E000F1F70197D9F7ECCF4098EACFFB01519195
:1001F0005523A9F0BF01DC014D9145174111E1F7ED
:1002000059F4CD010190002049F04D914015411164
:10021000C9F3FB014111EFCF81E090E00197089510
:04022000F894FFCF80
:080224004472696C6C20320089
:00000001FF
