:100000000C9434000C9451000C9451000C94510049
:100010000C9451000C9451000C9451000C9451001C
:100020000C9451000C9451000C9451000C9451000C
:100030000C9451000C9451000C9451000C945100FC
:100040000C9451000C9451000C94A6000C94510097
:100050000C9451000C9451000C9451000C945100DC
:100060000C9451000C94510011241FBECFEFD8E026
:10007000DEBFCDBF11E0A0E0B1E0E6EDF1E002C0EF
:1000800005900D92A630B107D9F711E0A6E0B1E0D6
:1000900001C01D92AE31B107E1F70E946B000C94D4
:1000A000E9000C940000519A59980895982F809176
:1000B000C00085FFFCCF9093C6000895FC0107C0E7
:1000C0008091C00085FFFCCF9093C600319690814F
:1000D0009923B1F70895EF92FF920F931F93DF9347
:1000E000CF9300D000D000D0CDB7DEB7389A8FE2E2
:1000F00090E09093C5008093C40086E08093C20096
:100100008091C10088618093C100519A5998809173
:10011000C10080688093C100DE011196E0E0F1E04B
:1001200086E001900D928150E1F77E010894E11C78
:10013000F11C0CE011E0C7010E945E0081E000307C
:10014000180711F44098F7CF409AF5CF1F920F92FD
:100150000FB60F9211242F938F939F93EF93FF93DA
:100160002091C6008091060190910701FC01E45F97
:10017000FE4F2083019690930701809306018091A2
:100180000601909107014097D1F481E090E09093AF
:100190000901809308018091060190910701019661
:1001A0009093070180930601E0910601F091070109
:1001B000E45FFE4F10821092070110920601FF913A
:1001C000EF919F918F912F910F900FBE0F901F90E5
:0601D0001895F894FFCF22
:0601D600414141410A0015
:00000001FF
