:100000000C9434000C9451000C9451000C94510049
:100010000C9451000C9451000C9451000C9451001C
:100020000C9451000C9451000C9451000C9451000C
:100030000C9451000C9451000C9451000C945100FC
:100040000C9451000C9451000C947D000C945100C0
:100050000C9451000C9451000C9451000C945100DC
:100060000C9451000C94510011241FBECFEFD8E026
:10007000DEBFCDBF11E0A0E0B1E0ECEEF1E002C0E8
:1000800005900D92A230B107D9F711E0A2E0B1E0DE
:1000900001C01D92AB31B107E1F70E94CA000C9478
:1000A000F4000C9400008FE290E09093C5008093E0
:1000B000C40086E08093C200E1ECF0E080818861BA
:1000C00080833C9A449880818068808378940895E6
:1000D000982F8091C00085FFFCCF9093C6000895B3
:1000E000FC0107C08091C00085FFFCCF9093C60043
:1000F000319690819923B1F708951F920F920FB610
:100100000F9211242F938F939F93EF93FF9320913E
:10011000C6008091020190910301FC01E75FFE4F50
:100120002083019690930301809302018091020144
:10013000909103014097A1F48091020190910301F5
:1001400001969093030180930201E0910201F091E6
:100150000301E75FFE4F108210920301109202012B
:10016000FF91EF919F918F912F910F900FBE0F9064
:100170001F901895BC0189E091E00E94DA00009779
:1001800021F0409A21E030E003C0409820E030E0C8
:10019000C9010895389A399A3A9A8FE290E00E94FC
:1001A000530080E091E00E94700080E091E00E94A6
:1001B000BA00F7CFFB0151915523A9F0BF01DC0133
:1001C0004D9145174111E1F759F4CD0101900020FF
:1001D00049F04D9140154111C9F3FB014111EFCF99
:0C01E00081E090E001970895F894FFCFB3
:0201EC004100D0
:00000001FF
