:100000000C9434000C943E000C943E000C943E0082
:100010000C943E000C943E000C943E000C943E0068
:100020000C943E000C943E000C943E000C943E0058
:100030000C943E000C943E000C943E000C943E0048
:100040000C943E000C943E000C943E000C943E0038
:100050000C943E000C943E000C943E000C943E0028
:100060000C943E000C943E0011241FBECFEFD8E04C
:10007000DEBFCDBF0E9455000C94A5000C9400007B
:10008000389A08954B9902C0409A0895409808956F
:1000900029B130E083E0369527958A95E1F72095E0
:1000A000309521703070C90108950E9470000E943F
:1000B00040000E946700FDCF83E00E948E0020E098
:1000C00030E0823314F021E030E0C901089583E08C
:1000D0000E948E00823314F0409A0895409808954B
:1000E0000E947400389A0895ECE7F0E080818078EF
:1000F00080838081806480838081837F808380810E
:1001000083608083AAE7B0E08C9187608C938081C4
:10011000806280838C9180688C93089590917C009C
:10012000907F90937C0090917C008F70892B8093BE
:100130007C0080917A00806480937A0080917A00BC
:0E01400086FDFCCF809179000895F894FFCFE2
:00000001FF
