:100000000C9434000C9446000C9446000C9446006A
:100010000C9446000C9446000C9446000C94460048
:100020000C9446000C9446000C9446000C94150168
:100030000C9446000C9446000C9446000C94460028
:100040000C9446000C9446000C9446000C94460018
:100050000C9446000C9446000C9446000C94460008
:100060000C9446000C94460011241FBECFEFD8E03C
:10007000DEBFCDBF11E0A0E0B1E001C01D92A23013
:10008000B107E1F70E945D000C945C010C94000044
:10009000389A08954B9902C0409A0895409808955F
:1000A00029B130E083E0369527958A95E1F72095D0
:1000B000309521703070C9010895CF93DF930E946D
:1000C0000101C5EFD0E086E892E00E94D10080ED0A
:1000D00097E0FE013197F1F70197D9F7F4CF83E06C
:1000E0000E94450120E030E0823314F021E030E04E
:1000F000C901089583E00E944501823314F0409ABB
:100100000895409808950E942B01389A089582E03E
:100110000E94450120E030E0843614F021E030E018
:10012000C901089582E00E944501843614F0409A86
:100130000895409808950E942B01389A089583E706
:1001400090E020E030E69093010180930001F901F6
:100150003197F1F7029641E08B359407A1F788EECD
:1001600093E025EF30E0F9013197F1F70197D9F7E6
:100170008AE591E020E030E6909301018093000150
:10018000F9013197F1F7029782379105A9F788EEC7
:1001900093E025EF30E0F9013197F1F70197D9F7B6
:1001A0000895909301018093000188EE93E025EF7C
:1001B00030E0F9013197F1F70197D9F7089580E020
:1001C0009CE0909389008093880083E790E090936F
:1001D0008B0080938A00E0E8F0E080818062808379
:1001E000A1E8B0E08C9188618C93808183608083EA
:1001F000EFE6F0E08081826080838C9183608C9355
:100200000895229A83E790E0909301018093000182
:100210000E94DF00789488E893E125EF30E0F9014F
:100220003197F1F70197D9F708951F920F920FB602
:100230000F9211248F939F9380910001909101015F
:1002400090938B0080938A009F918F910F900FBEA7
:100250000F901F901895ECE7F0E080818078808304
:100260008081806480838081837F808380818360BC
:100270008083AAE7B0E08C9187608C938081806254
:1002800080838C9180688C93089590917C00907FFE
:1002900090937C0090917C008F70892B80937C00E0
:1002A00080917A00806480937A0080917A0086FD44
:0C02B000FCCF809179000895F894FFCFF6
:00000001FF
