:100000000C9434000C9446000C9446000C9446006A
:100010000C9446000C9446000C9446000C94460048
:100020000C9446000C9446000C9446000C9473010A
:100030000C9446000C9446000C9446000C94460028
:100040000C9446000C9446000C9446000C94460018
:100050000C9446000C9446000C9446000C94460008
:100060000C9446000C94460011241FBECFEFD8E03C
:10007000DEBFCDBF11E0A0E0B1E001C01D92A8300D
:10008000B107E1F70E94BB000C94E0010C94000062
:10009000389A08954B9902C0409A0895409808955F
:1000A00029B130E083E0369527958A95E1F72095D0
:1000B000309521703070C90108959C018091040130
:1000C00090910501892B39F52130310521F589EB16
:1000D00090E00E942F0180E593EC28EB30E0F901DD
:1000E0003197F1F70197D9F784E690E00E942F014C
:1000F00080E593EC28EB30E0F9013197F1F70197B7
:10010000D9F782E390E00E942F0181E090E0909384
:1001100005018093040108950E94CD00019749F4E0
:1001200080910201909103010196909303018093C5
:10013000020108950F931F930E9450008C010E94AA
:10014000E5000130110511F0019791F48091000153
:10015000909101010196909301018093000188E83C
:1001600093E128EB30E0F9013197F1F70197D9F7E6
:100170001F910F9108950E945F010E94F9000E9453
:10018000E1000E944800389A399A3A9A0E94BA01CE
:1001900081E090E00E94D101FBCF83E00E94A301A7
:1001A00020E030E0843614F021E030E0C901089509
:1001B00083E00E94A3018A3014F0409A0895409889
:1001C00008950E948901389A089585E00E94A3014C
:1001D00020E030E08C3314F021E030E0C9010895D4
:1001E00085E00E94A3018C3314F0409A0895409852
:1001F00008950E948901389A089583E790E020E0ED
:1002000038E49093070180930601F9013197F1F7E3
:10021000029641E08B359407A1F788EE93E028EB36
:1002200030E0F9013197F1F70197D9F78AE591E0CC
:1002300020E038E49093070180930601F90131979B
:10024000F1F7029782379105A9F788EE93E028EB42
:1002500030E0F9013197F1F70197D9F708959093BC
:1002600007018093060180E197E228EB30E0F90175
:100270003197F1F70197D9F7089580E09CE09093CA
:1002800089008093880083E790E090938B008093AF
:100290008A00E0E8F0E0808180628083A1E8B0E03D
:1002A0008C9188618C93808183608083EFE6F0E09D
:1002B0008081826080838C9183608C930895229AE0
:1002C00083E790E090930701809306010E943D012F
:1002D000789488E893E128EB30E0F9013197F1F761
:1002E0000197D9F708951F920F920FB60F9211241C
:1002F0008F939F93809106019091070190938B00BB
:1003000080938A009F918F910F900FBE0F901F9046
:100310001895ECE7F0E080818078808380818064AC
:1003200080838081837F8083808183608083AAE74C
:10033000B0E08C9187608C938081806280838C9107
:1003400080688C93089590917C00907F90937C00BE
:1003500090917C008F70892B80937C0080917A0033
:10036000806480937A0080917A0086FDFCCF809132
:1003700079000895559A569A579A209A089581308F
:10038000910519F45F9A289808952FEF8F3F9207EF
:1003900019F4289A5F980895892B11F45F9828988A
:1003A00008958130910521F02FEF8F3F920719F4C6
:1003B0005D9A5E980895892B11F45D985E98089572
:0403C000F894FFCFDF
:00000001FF
