:100000000C9434000C9446000C9446000C9446006A
:100010000C9446000C9446000C9446000C94460048
:100020000C9446000C9446000C9446000C946A0113
:100030000C9446000C9446000C9446000C94460028
:100040000C9446000C9446000C9446000C94460018
:100050000C9446000C9446000C9446000C94460008
:100060000C9446000C94460011241FBECFEFD8E03C
:10007000DEBFCDBF11E0A0E0B1E001C01D92A8300D
:10008000B107E1F70E94B5000C94D7010C94000071
:10009000389A08954B9902C0409A0895409808955F
:1000A00029B130E083E0369527958A95E1F72095D0
:1000B000309521703070C90108959C018091040130
:1000C00090910501892B09F521303105F1F486E87D
:1000D00092E00E94260180E593EC25EF30E0F901E3
:1000E0003197F1F70197D9F780E090E00E9426015F
:1000F00080E593EC25EF30E0F9013197F1F70197B6
:10010000D9F78AE591E00E94260108950E94C40073
:10011000019749F480910201909103010196909317
:1001200003018093020108950F931F930E945000D2
:100130008C010E94DC000130110511F0019791F44F
:1001400080910001909101010196909301018093AB
:10015000000188E893E125EF30E0F9013197F1F7EC
:100160000197D9F71F910F9108950E94F000389AD6
:100170000E9494008091000190910101059711F473
:10018000409AF6CF4098F4CF83E00E949A0120E095
:1001900030E08E3714F021E030E0C901089583E0AB
:1001A0000E949A018A3014F0409A08954098089568
:1001B0000E948001389A089585E00E949A0120E00B
:1001C00030E08C3314F021E030E0C901089585E07F
:1001D0000E949A018C3314F0409A08954098089533
:1001E0000E948001389A089583E790E020E030E68D
:1001F0009093070180930601F9013197F1F7029678
:1002000041E08B359407A1F788EE93E025EF30E0CD
:10021000F9013197F1F70197D9F78AE591E020E0EC
:1002200030E69093070180930601F9013197F1F7C9
:10023000029782379105A9F788EE93E025EF30E029
:10024000F9013197F1F70197D9F7089590930701D4
:100250008093060188EE93E025EF30E0F9013197B5
:10026000F1F70197D9F7089580E09CE09093890019
:100270008093880083E790E090938B0080938A00BE
:10028000E0E8F0E0808180628083A1E8B0E08C91BA
:1002900088618C93808183608083EFE6F0E08081C9
:1002A000826080838C9183608C930895229A83E787
:1002B00090E090930701809306010E9434017894A6
:1002C00088E893E125EF30E0F9013197F1F70197E4
:1002D000D9F708951F920F920FB60F9211248F93A2
:1002E0009F93809106019091070190938B008093DA
:1002F0008A009F918F910F900FBE0F901F901895BD
:10030000ECE7F0E080818078808380818064808366
:100310008081837F8083808183608083AAE7B0E0CF
:100320008C9187608C938081806280838C918068BF
:100330008C93089590917C00907F90937C00909195
:100340007C008F70892B80937C0080917A00806480
:1003500080937A0080917A0086FDFCCF80917900AD
:100360000895559A569A579A209A08958130910582
:1003700019F45F9A289808952FEF8F3F920719F488
:10038000289A5F980895892B11F45F98289808950A
:100390008130910521F02FEF8F3F920719F45D9A7C
:1003A0005E980895892B11F45D985E980895F894ED
:0203B000FFCF7D
:00000001FF
