:100000000C9434000C9451000C9451000C94510049
:100010000C9451000C9451000C9451000C9451001C
:100020000C9451000C9451000C9451000C94180243
:100030000C9451000C9451000C9451000C945100FC
:100040000C9451000C9451000C9492000C945100AB
:100050000C9451000C9451000C9451000C945100DC
:100060000C9451000C94510011241FBECFEFD8E026
:10007000DEBFCDBF11E0A0E0B1E0E2E4F5E002C0F8
:1000800005900D92A830B107D9F711E0A8E0B1E0D2
:1000900001C01D92A932B107E1F70E9445010C94FD
:1000A0009F020C940000389A08954B9902C0409A20
:1000B00008954098089529B130E083E0369527955A
:1000C0008A95E1F72095309521703070C901089527
:1000D0008FE290E09093C5008093C40086E0809307
:1000E000C200E1ECF0E08081886180833C9A449812
:1000F00080818068808378940895982F8091C000D3
:1001000085FFFCCF9093C6000895FC0107C0809145
:10011000C00085FFFCCF9093C60031969081992353
:10012000B1F708951F920F920FB60F9211242F93DB
:100130008F939F93EF93FF932091C60080910801C6
:1001400090910901FC01EB5EFE4F20830196909394
:10015000090180930801809108019091090140975D
:10016000A1F48091080190910901019690930901F1
:1001700080930801E0910801F0910901EB5EFE4FC8
:1001800010821092090110920801FF91EF919F9146
:100190008F912F910F900FBE0F901F901895BC015B
:1001A00085E191E00E948502009721F0409A21E0CC
:1001B00030E003C0409820E030E0C90108959C0180
:1001C0008091130190911401892B79F5213031052B
:1001D00029F589EB90E00E94D40180E593EC28EBAF
:1001E00030E0F9013197F1F70197D9F784E690E013
:1001F0000E94D40180E593EC28EB30E0F9013197BF
:10020000F1F70197D9F782E390E00E94D40181E0F1
:1002100090E09093140180931301089522303105EA
:1002200021F484E690E00E94D40108950E947201B6
:10023000019749F4809111019091120101969093D8
:1002400012018093110108950F931F930E945B0088
:100250008C010E948A010130110511F0019791F47F
:1002600080910F019091100101969093100180935D
:100270000F0188E893E128EB30E0F9013197F1F7BD
:100280000197D9F71F910F9108950E9404020E94CF
:100290009E010E9486010E945300389A399A3A9A28
:1002A0000E945F028FE290E00E94680081E090E08F
:1002B0000E94640281E090E00E94760280E091E07A
:1002C0000E94850080E091E00E94CF00892B19F008
:1002D00081E090E002C082E090E00E94DF000E9496
:1002E0007D01E4CF83E00E94480220E030E08436C4
:1002F00014F021E030E0C901089583E00E94480233
:100300008A3014F0409A0895409808950E942E0271
:10031000389A089585E00E94480220E030E08C334E
:1003200014F021E030E0C901089585E00E94480200
:100330008C3314F0409A0895409808950E942E023C
:10034000389A089583E790E020E038E490932801FC
:1003500080932701F9013197F1F7029641E08B353F
:100360009407A1F788EE93E028EB30E0F90131978C
:10037000F1F70197D9F78AE591E020E038E490930E
:10038000280180932701F9013197F1F7029782370D
:100390009105A9F788EE93E028EB30E0F901319759
:1003A000F1F70197D9F708959093280180932701D9
:1003B00080E197E228EB30E0F9013197F1F70197FE
:1003C000D9F7089580E09CE090938900809388009D
:1003D00083E790E090938B0080938A00E0E8F0E060
:1003E000808180628083A1E8B0E08C9188618C93E9
:1003F000808183608083EFE6F0E08081826080838B
:100400008C9183608C930895229A83E790E0909377
:100410002801809327010E94E201789488E893E103
:1004200028EB30E0F9013197F1F70197D9F70895FA
:100430001F920F920FB60F9211248F939F9380916A
:1004400027019091280190938B0080938A009F91BF
:100450008F910F900FBE0F901F901895ECE7F0E072
:100460008081807880838081806480838081837FA5
:100470008083808183608083AAE7B0E08C9187606D
:100480008C938081806280838C9180688C930895A6
:1004900090917C00907F90937C0090917C008F7075
:1004A000892B80937C0080917A00806480937A000D
:1004B00080917A0086FDFCCF809179000895559A4D
:1004C000569A579A529A08958130910519F45F9A75
:1004D0005A9808952FEF8F3F920719F45A9A5F9810
:1004E0000895892B11F45F985A98089581309105E9
:1004F00021F02FEF8F3F920719F45D9A5E980895CF
:10050000892B11F45D985E980895FB015191552354
:10051000A9F0BF01DC014D9145174111E1F759F4F4
:10052000CD010190002049F04D9140154111C9F3D2
:10053000FB014111EFCF81E090E001970895F8941D
:02054000FFCFEB
:080542004472696C6C20310069
:00000001FF
